{
  "_format": "hh-sol-artifact-1",
  "contractName": "PetRegistry",
  "sourceName": "contracts/PetRegistry.sol",
  "abi": [
    {
      "inputs": [],
      "stateMutability": "nonpayable",
      "type": "constructor"
    },
    {
      "anonymous": false,
      "inputs": [
        {
          "indexed": false,
          "internalType": "uint256",
          "name": "microchipId",
          "type": "uint256"
        },
        {
          "indexed": false,
          "internalType": "address",
          "name": "owner",
          "type": "address"
        },
        {
          "indexed": false,
          "internalType": "string",
          "name": "name",
          "type": "string"
        }
      ],
      "name": "PetAdded",
      "type": "event"
    },
    {
      "inputs": [
        {
          "internalType": "uint256",
          "name": "microchipId",
          "type": "uint256"
        },
        {
          "internalType": "string",
          "name": "name",
          "type": "string"
        },
        {
          "internalType": "string",
          "name": "breed",
          "type": "string"
        },
        {
          "internalType": "string",
          "name": "color",
          "type": "string"
        },
        {
          "internalType": "string",
          "name": "lastSeenLocation",
          "type": "string"
        },
        {
          "internalType": "uint256",
          "name": "age",
          "type": "uint256"
        }
      ],
      "name": "addPet",
      "outputs": [],
      "stateMutability": "nonpayable",
      "type": "function"
    },
    {
      "inputs": [
        {
          "internalType": "uint256",
          "name": "",
          "type": "uint256"
        }
      ],
      "name": "allPets",
      "outputs": [
        {
          "internalType": "address",
          "name": "owner",
          "type": "address"
        },
        {
          "internalType": "uint256",
          "name": "microchipId",
          "type": "uint256"
        },
        {
          "internalType": "string",
          "name": "name",
          "type": "string"
        },
        {
          "internalType": "string",
          "name": "breed",
          "type": "string"
        },
        {
          "internalType": "string",
          "name": "color",
          "type": "string"
        },
        {
          "internalType": "string",
          "name": "lastSeenLocation",
          "type": "string"
        },
        {
          "internalType": "uint256",
          "name": "age",
          "type": "uint256"
        },
        {
          "internalType": "bool",
          "name": "isFound",
          "type": "bool"
        }
      ],
      "stateMutability": "view",
      "type": "function"
    },
    {
      "inputs": [
        {
          "internalType": "uint256",
          "name": "amount",
          "type": "uint256"
        }
      ],
      "name": "buyPetFood",
      "outputs": [],
      "stateMutability": "payable",
      "type": "function"
    },
    {
      "inputs": [],
      "name": "getAllPets",
      "outputs": [
        {
          "components": [
            {
              "internalType": "address",
              "name": "owner",
              "type": "address"
            },
            {
              "internalType": "uint256",
              "name": "microchipId",
              "type": "uint256"
            },
            {
              "internalType": "string",
              "name": "name",
              "type": "string"
            },
            {
              "internalType": "string",
              "name": "breed",
              "type": "string"
            },
            {
              "internalType": "string",
              "name": "color",
              "type": "string"
            },
            {
              "internalType": "string",
              "name": "lastSeenLocation",
              "type": "string"
            },
            {
              "internalType": "uint256",
              "name": "age",
              "type": "uint256"
            },
            {
              "internalType": "bool",
              "name": "isFound",
              "type": "bool"
            }
          ],
          "internalType": "struct PetRegistry.Pet[]",
          "name": "",
          "type": "tuple[]"
        }
      ],
      "stateMutability": "view",
      "type": "function"
    },
    {
      "inputs": [
        {
          "internalType": "uint256",
          "name": "microchipId",
          "type": "uint256"
        }
      ],
      "name": "markAsFound",
      "outputs": [],
      "stateMutability": "nonpayable",
      "type": "function"
    },
    {
      "inputs": [],
      "name": "owner",
      "outputs": [
        {
          "internalType": "address payable",
          "name": "",
          "type": "address"
        }
      ],
      "stateMutability": "view",
      "type": "function"
    },
    {
      "inputs": [
        {
          "internalType": "uint256",
          "name": "",
          "type": "uint256"
        }
      ],
      "name": "pets",
      "outputs": [
        {
          "internalType": "address",
          "name": "owner",
          "type": "address"
        },
        {
          "internalType": "uint256",
          "name": "microchipId",
          "type": "uint256"
        },
        {
          "internalType": "string",
          "name": "name",
          "type": "string"
        },
        {
          "internalType": "string",
          "name": "breed",
          "type": "string"
        },
        {
          "internalType": "string",
          "name": "color",
          "type": "string"
        },
        {
          "internalType": "string",
          "name": "lastSeenLocation",
          "type": "string"
        },
        {
          "internalType": "uint256",
          "name": "age",
          "type": "uint256"
        },
        {
          "internalType": "bool",
          "name": "isFound",
          "type": "bool"
        }
      ],
      "stateMutability": "view",
      "type": "function"
    }
  ],
  "bytecode": "0x608060405234801561001057600080fd5b50336000806101000a81548173ffffffffffffffffffffffffffffffffffffffff021916908373ffffffffffffffffffffffffffffffffffffffff160217905550611f96806100606000396000f3fe6080604052600436106100705760003560e01c8063c11134a31161004e578063c11134a3146100f4578063c81b43b11461011d578063cfb869bf14610161578063d21d1f20146101a557610070565b80635b236d97146100755780638da5cb5b146100a0578063b3035b64146100cb575b600080fd5b34801561008157600080fd5b5061008a6101c1565b604051610097919061148d565b60405180910390f35b3480156100ac57600080fd5b506100b56104ee565b6040516100c291906114d0565b60405180910390f35b3480156100d757600080fd5b506100f260048036038101906100ed9190611521565b610512565b005b34801561010057600080fd5b5061011b600480360381019061011691906115b3565b6106f1565b005b34801561012957600080fd5b50610144600480360381019061013f9190611521565b610b4a565b60405161015898979695949392919061173a565b60405180910390f35b34801561016d57600080fd5b5061018860048036038101906101839190611521565b610def565b60405161019c98979695949392919061173a565b60405180910390f35b6101bf60048036038101906101ba9190611521565b611084565b005b60606003805480602002602001604051908101604052809291908181526020016000905b828210156104e55783829060005260206000209060080201604051806101000160405290816000820160009054906101000a900473ffffffffffffffffffffffffffffffffffffffff1673ffffffffffffffffffffffffffffffffffffffff1673ffffffffffffffffffffffffffffffffffffffff1681526020016001820154815260200160028201805461027990611803565b80601f01602080910402602001604051908101604052809291908181526020018280546102a590611803565b80156102f25780601f106102c7576101008083540402835291602001916102f2565b820191906000526020600020905b8154815290600101906020018083116102d557829003601f168201915b5050505050815260200160038201805461030b90611803565b80601f016020809104026020016040519081016040528092919081815260200182805461033790611803565b80156103845780601f1061035957610100808354040283529160200191610384565b820191906000526020600020905b81548152906001019060200180831161036757829003601f168201915b5050505050815260200160048201805461039d90611803565b80601f01602080910402602001604051908101604052809291908181526020018280546103c990611803565b80156104165780601f106103eb57610100808354040283529160200191610416565b820191906000526020600020905b8154815290600101906020018083116103f957829003601f168201915b5050505050815260200160058201805461042f90611803565b80601f016020809104026020016040519081016040528092919081815260200182805461045b90611803565b80156104a85780601f1061047d576101008083540402835291602001916104a8565b820191906000526020600020905b81548152906001019060200180831161048b57829003601f168201915b50505050508152602001600682015481526020016007820160009054906101000a900460ff161515151581525050815260200190600101906101e5565b50505050905090565b60008054906101000a900473ffffffffffffffffffffffffffffffffffffffff1681565b600073ffffffffffffffffffffffffffffffffffffffff166002600083815260200190815260200160002060000160009054906101000a900473ffffffffffffffffffffffffffffffffffffffff1673ffffffffffffffffffffffffffffffffffffffff16036105b7576040517f08c379a00000000000000000000000000000000000000000000000000000000081526004016105ae906118a6565b60405180910390fd5b3373ffffffffffffffffffffffffffffffffffffffff166002600083815260200190815260200160002060000160009054906101000a900473ffffffffffffffffffffffffffffffffffffffff1673ffffffffffffffffffffffffffffffffffffffff161461065b576040517f08c379a000000000000000000000000000000000000000000000000000000000815260040161065290611938565b60405180910390fd5b6002600082815260200190815260200160002060070160009054906101000a900460ff16156106bf576040517f08c379a00000000000000000000000000000000000000000000000000000000081526004016106b6906119a4565b60405180910390fd5b60016002600083815260200190815260200160002060070160006101000a81548160ff02191690831515021790555050565b600073ffffffffffffffffffffffffffffffffffffffff16600260008c815260200190815260200160002060000160009054906101000a900473ffffffffffffffffffffffffffffffffffffffff1673ffffffffffffffffffffffffffffffffffffffff1614610796576040517f08c379a000000000000000000000000000000000000000000000000000000000815260040161078d90611a10565b60405180910390fd5b60006040518061010001604052803373ffffffffffffffffffffffffffffffffffffffff1681526020018c81526020018b8b8080601f016020809104026020016040519081016040528093929190818152602001838380828437600081840152601f19601f82011690508083019250505050505050815260200189898080601f016020809104026020016040519081016040528093929190818152602001838380828437600081840152601f19601f82011690508083019250505050505050815260200187878080601f016020809104026020016040519081016040528093929190818152602001838380828437600081840152601f19601f82011690508083019250505050505050815260200185858080601f016020809104026020016040519081016040528093929190818152602001838380828437600081840152601f19601f82011690508083019250505050505050815260200183815260200160001515815250905080600260008d815260200190815260200160002060008201518160000160006101000a81548173ffffffffffffffffffffffffffffffffffffffff021916908373ffffffffffffffffffffffffffffffffffffffff1602179055506020820151816001015560408201518160020190816109779190611c0b565b50606082015181600301908161098d9190611c0b565b5060808201518160040190816109a39190611c0b565b5060a08201518160050190816109b99190611c0b565b5060c0820151816006015560e08201518160070160006101000a81548160ff021916908315150217905550905050600381908060018154018082558091505060019003906000526020600020906008020160009091909190915060008201518160000160006101000a81548173ffffffffffffffffffffffffffffffffffffffff021916908373ffffffffffffffffffffffffffffffffffffffff160217905550602082015181600101556040820151816002019081610a799190611c0b565b506060820151816003019081610a8f9190611c0b565b506080820151816004019081610aa59190611c0b565b5060a0820151816005019081610abb9190611c0b565b5060c0820151816006015560e08201518160070160006101000a81548160ff021916908315150217905550505060016000815480929190610afb90611d0c565b91905055507f960f69e850cb0cc347044f0390e8aae3b02056ef0f98dbaf5cd1b8c9add44fe98b338c8c604051610b359493929190611d90565b60405180910390a15050505050505050505050565b60038181548110610b5a57600080fd5b90600052602060002090600802016000915090508060000160009054906101000a900473ffffffffffffffffffffffffffffffffffffffff1690806001015490806002018054610ba990611803565b80601f0160208091040260200160405190810160405280929190818152602001828054610bd590611803565b8015610c225780601f10610bf757610100808354040283529160200191610c22565b820191906000526020600020905b815481529060010190602001808311610c0557829003601f168201915b505050505090806003018054610c3790611803565b80601f0160208091040260200160405190810160405280929190818152602001828054610c6390611803565b8015610cb05780601f10610c8557610100808354040283529160200191610cb0565b820191906000526020600020905b815481529060010190602001808311610c9357829003601f168201915b505050505090806004018054610cc590611803565b80601f0160208091040260200160405190810160405280929190818152602001828054610cf190611803565b8015610d3e5780601f10610d1357610100808354040283529160200191610d3e565b820191906000526020600020905b815481529060010190602001808311610d2157829003601f168201915b505050505090806005018054610d5390611803565b80601f0160208091040260200160405190810160405280929190818152602001828054610d7f90611803565b8015610dcc5780601f10610da157610100808354040283529160200191610dcc565b820191906000526020600020905b815481529060010190602001808311610daf57829003601f168201915b5050505050908060060154908060070160009054906101000a900460ff16905088565b60026020528060005260406000206000915090508060000160009054906101000a900473ffffffffffffffffffffffffffffffffffffffff1690806001015490806002018054610e3e90611803565b80601f0160208091040260200160405190810160405280929190818152602001828054610e6a90611803565b8015610eb75780601f10610e8c57610100808354040283529160200191610eb7565b820191906000526020600020905b815481529060010190602001808311610e9a57829003601f168201915b505050505090806003018054610ecc90611803565b80601f0160208091040260200160405190810160405280929190818152602001828054610ef890611803565b8015610f455780601f10610f1a57610100808354040283529160200191610f45565b820191906000526020600020905b815481529060010190602001808311610f2857829003601f168201915b505050505090806004018054610f5a90611803565b80601f0160208091040260200160405190810160405280929190818152602001828054610f8690611803565b8015610fd35780601f10610fa857610100808354040283529160200191610fd3565b820191906000526020600020905b815481529060010190602001808311610fb657829003601f168201915b505050505090806005018054610fe890611803565b80601f016020809104026020016040519081016040528092919081815260200182805461101490611803565b80156110615780601f1061103657610100808354040283529160200191611061565b820191906000526020600020905b81548152906001019060200180831161104457829003601f168201915b5050505050908060060154908060070160009054906101000a900460ff16905088565b60008054906101000a900473ffffffffffffffffffffffffffffffffffffffff1673ffffffffffffffffffffffffffffffffffffffff163373ffffffffffffffffffffffffffffffffffffffff1603611112576040517f08c379a000000000000000000000000000000000000000000000000000000000815260040161110990611e42565b60405180910390fd5b60003411611155576040517f08c379a000000000000000000000000000000000000000000000000000000000815260040161114c90611eae565b60405180910390fd5b803414611197576040517f08c379a000000000000000000000000000000000000000000000000000000000815260040161118e90611f40565b60405180910390fd5b60008054906101000a900473ffffffffffffffffffffffffffffffffffffffff1673ffffffffffffffffffffffffffffffffffffffff166108fc349081150290604051600060405180830381858888f193505050501580156111fd573d6000803e3d6000fd5b5050565b600081519050919050565b600082825260208201905092915050565b6000819050602082019050919050565b600073ffffffffffffffffffffffffffffffffffffffff82169050919050565b60006112588261122d565b9050919050565b6112688161124d565b82525050565b6000819050919050565b6112818161126e565b82525050565b600081519050919050565b600082825260208201905092915050565b60005b838110156112c15780820151818401526020810190506112a6565b60008484015250505050565b6000601f19601f8301169050919050565b60006112e982611287565b6112f38185611292565b93506113038185602086016112a3565b61130c816112cd565b840191505092915050565b60008115159050919050565b61132c81611317565b82525050565b60006101008301600083015161134b600086018261125f565b50602083015161135e6020860182611278565b506040830151848203604086015261137682826112de565b9150506060830151848203606086015261139082826112de565b915050608083015184820360808601526113aa82826112de565b91505060a083015184820360a08601526113c482826112de565b91505060c08301516113d960c0860182611278565b5060e08301516113ec60e0860182611323565b508091505092915050565b60006114038383611332565b905092915050565b6000602082019050919050565b600061142382611201565b61142d818561120c565b93508360208202850161143f8561121d565b8060005b8581101561147b578484038952815161145c85826113f7565b94506114678361140b565b925060208a01995050600181019050611443565b50829750879550505050505092915050565b600060208201905081810360008301526114a78184611418565b905092915050565b60006114ba8261122d565b9050919050565b6114ca816114af565b82525050565b60006020820190506114e560008301846114c1565b92915050565b600080fd5b600080fd5b6114fe8161126e565b811461150957600080fd5b50565b60008135905061151b816114f5565b92915050565b600060208284031215611537576115366114eb565b5b60006115458482850161150c565b91505092915050565b600080fd5b600080fd5b600080fd5b60008083601f8401126115735761157261154e565b5b8235905067ffffffffffffffff8111156115905761158f611553565b5b6020830191508360018202830111156115ac576115ab611558565b5b9250929050565b60008060008060008060008060008060c08b8d0312156115d6576115d56114eb565b5b60006115e48d828e0161150c565b9a505060208b013567ffffffffffffffff811115611605576116046114f0565b5b6116118d828e0161155d565b995099505060408b013567ffffffffffffffff811115611634576116336114f0565b5b6116408d828e0161155d565b975097505060608b013567ffffffffffffffff811115611663576116626114f0565b5b61166f8d828e0161155d565b955095505060808b013567ffffffffffffffff811115611692576116916114f0565b5b61169e8d828e0161155d565b935093505060a06116b18d828e0161150c565b9150509295989b9194979a5092959850565b6116cc8161124d565b82525050565b6116db8161126e565b82525050565b600082825260208201905092915050565b60006116fd82611287565b61170781856116e1565b93506117178185602086016112a3565b611720816112cd565b840191505092915050565b61173481611317565b82525050565b600061010082019050611750600083018b6116c3565b61175d602083018a6116d2565b818103604083015261176f81896116f2565b9050818103606083015261178381886116f2565b9050818103608083015261179781876116f2565b905081810360a08301526117ab81866116f2565b90506117ba60c08301856116d2565b6117c760e083018461172b565b9998505050505050505050565b7f4e487b7100000000000000000000000000000000000000000000000000000000600052602260045260246000fd5b6000600282049050600182168061181b57607f821691505b60208210810361182e5761182d6117d4565b5b50919050565b7f50657420776974682074686520676976656e206d6963726f636869702049442060008201527f646f6573206e6f74206578697374000000000000000000000000000000000000602082015250565b6000611890602e836116e1565b915061189b82611834565b604082019050919050565b600060208201905081810360008301526118bf81611883565b9050919050565b7f596f7520617265206e6f7420746865206f776e6572206f66207468697320706560008201527f7400000000000000000000000000000000000000000000000000000000000000602082015250565b60006119226021836116e1565b915061192d826118c6565b604082019050919050565b6000602082019050818103600083015261195181611915565b9050919050565b7f50657420697320616c7265616479206d61726b656420617320666f756e640000600082015250565b600061198e601e836116e1565b915061199982611958565b602082019050919050565b600060208201905081810360008301526119bd81611981565b9050919050565b7f4d6963726f6368697020494420616c7265616479207265676973746572656400600082015250565b60006119fa601f836116e1565b9150611a05826119c4565b602082019050919050565b60006020820190508181036000830152611a29816119ed565b9050919050565b7f4e487b7100000000000000000000000000000000000000000000000000000000600052604160045260246000fd5b60008190508160005260206000209050919050565b60006020601f8301049050919050565b600082821b905092915050565b600060088302611ac17fffffffffffffffffffffffffffffffffffffffffffffffffffffffffffffffff82611a84565b611acb8683611a84565b95508019841693508086168417925050509392505050565b6000819050919050565b6000611b08611b03611afe8461126e565b611ae3565b61126e565b9050919050565b6000819050919050565b611b2283611aed565b611b36611b2e82611b0f565b848454611a91565b825550505050565b600090565b611b4b611b3e565b611b56818484611b19565b505050565b5b81811015611b7a57611b6f600082611b43565b600181019050611b5c565b5050565b601f821115611bbf57611b9081611a5f565b611b9984611a74565b81016020851015611ba8578190505b611bbc611bb485611a74565b830182611b5b565b50505b505050565b600082821c905092915050565b6000611be260001984600802611bc4565b1980831691505092915050565b6000611bfb8383611bd1565b9150826002028217905092915050565b611c1482611287565b67ffffffffffffffff811115611c2d57611c2c611a30565b5b611c378254611803565b611c42828285611b7e565b600060209050601f831160018114611c755760008415611c63578287015190505b611c6d8582611bef565b865550611cd5565b601f198416611c8386611a5f565b60005b82811015611cab57848901518255600182019150602085019450602081019050611c86565b86831015611cc85784890151611cc4601f891682611bd1565b8355505b6001600288020188555050505b505050505050565b7f4e487b7100000000000000000000000000000000000000000000000000000000600052601160045260246000fd5b6000611d178261126e565b91507fffffffffffffffffffffffffffffffffffffffffffffffffffffffffffffffff8203611d4957611d48611cdd565b5b600182019050919050565b82818337600083830152505050565b6000611d6f83856116e1565b9350611d7c838584611d54565b611d85836112cd565b840190509392505050565b6000606082019050611da560008301876116d2565b611db260208301866116c3565b8181036040830152611dc5818486611d63565b905095945050505050565b7f596f752061726520746865206f776e6572206f662074686520636f6e7472616360008201527f7400000000000000000000000000000000000000000000000000000000000000602082015250565b6000611e2c6021836116e1565b9150611e3782611dd0565b604082019050919050565b60006020820190508181036000830152611e5b81611e1f565b9050919050565b7f596f75206e65656420746f2073656e6420736f6d652065746865720000000000600082015250565b6000611e98601b836116e1565b9150611ea382611e62565b602082019050919050565b60006020820190508181036000830152611ec781611e8b565b9050919050565b7f53656e7420657468657220646f6573206e6f74206d617463682074686520737060008201527f6563696669656420616d6f756e74000000000000000000000000000000000000602082015250565b6000611f2a602e836116e1565b9150611f3582611ece565b604082019050919050565b60006020820190508181036000830152611f5981611f1d565b905091905056fea2646970667358221220f5e61f7470b4641478a2ad2c8f07ab40355e0d097ee154c03a7511334fa5ed6664736f6c63430008170033",
  "linkReferences": {},
  "deployedLinkReferences": {}
}