{
  "_format": "hh-sol-artifact-1",
  "contractName": "PetRegistry",
  "sourceName": "contracts/PetRegistry.sol",
  "abi": [
    {
      "inputs": [],
      "stateMutability": "nonpayable",
      "type": "constructor"
    },
    {
      "anonymous": false,
      "inputs": [
        {
          "indexed": false,
          "internalType": "uint256",
          "name": "microchipId",
          "type": "uint256"
        },
        {
          "indexed": false,
          "internalType": "address",
          "name": "owner",
          "type": "address"
        },
        {
          "indexed": false,
          "internalType": "string",
          "name": "name",
          "type": "string"
        }
      ],
      "name": "PetAdded",
      "type": "event"
    },
    {
      "anonymous": false,
      "inputs": [
        {
          "indexed": false,
          "internalType": "uint256",
          "name": "amount",
          "type": "uint256"
        }
      ],
      "name": "PetFoodPurchased",
      "type": "event"
    },
    {
      "inputs": [
        {
          "internalType": "uint256",
          "name": "microchipId",
          "type": "uint256"
        },
        {
          "internalType": "string",
          "name": "name",
          "type": "string"
        },
        {
          "internalType": "string",
          "name": "breed",
          "type": "string"
        },
        {
          "internalType": "string",
          "name": "color",
          "type": "string"
        },
        {
          "internalType": "string",
          "name": "lastSeenLocation",
          "type": "string"
        },
        {
          "internalType": "uint256",
          "name": "age",
          "type": "uint256"
        }
      ],
      "name": "addPet",
      "outputs": [],
      "stateMutability": "nonpayable",
      "type": "function"
    },
    {
      "inputs": [
        {
          "internalType": "uint256",
          "name": "",
          "type": "uint256"
        }
      ],
      "name": "allPets",
      "outputs": [
        {
          "internalType": "address",
          "name": "origin",
          "type": "address"
        },
        {
          "internalType": "address",
          "name": "owner",
          "type": "address"
        },
        {
          "internalType": "uint256",
          "name": "microchipId",
          "type": "uint256"
        },
        {
          "internalType": "string",
          "name": "name",
          "type": "string"
        },
        {
          "internalType": "string",
          "name": "breed",
          "type": "string"
        },
        {
          "internalType": "string",
          "name": "color",
          "type": "string"
        },
        {
          "internalType": "string",
          "name": "lastSeenLocation",
          "type": "string"
        },
        {
          "internalType": "uint256",
          "name": "age",
          "type": "uint256"
        },
        {
          "internalType": "bool",
          "name": "isFound",
          "type": "bool"
        }
      ],
      "stateMutability": "view",
      "type": "function"
    },
    {
      "inputs": [
        {
          "internalType": "uint256",
          "name": "amount",
          "type": "uint256"
        }
      ],
      "name": "buyPetFood",
      "outputs": [],
      "stateMutability": "payable",
      "type": "function"
    },
    {
      "inputs": [],
      "name": "getAllPets",
      "outputs": [
        {
          "components": [
            {
              "internalType": "address",
              "name": "origin",
              "type": "address"
            },
            {
              "internalType": "address",
              "name": "owner",
              "type": "address"
            },
            {
              "internalType": "uint256",
              "name": "microchipId",
              "type": "uint256"
            },
            {
              "internalType": "string",
              "name": "name",
              "type": "string"
            },
            {
              "internalType": "string",
              "name": "breed",
              "type": "string"
            },
            {
              "internalType": "string",
              "name": "color",
              "type": "string"
            },
            {
              "internalType": "string",
              "name": "lastSeenLocation",
              "type": "string"
            },
            {
              "internalType": "uint256",
              "name": "age",
              "type": "uint256"
            },
            {
              "internalType": "bool",
              "name": "isFound",
              "type": "bool"
            }
          ],
          "internalType": "struct PetRegistry.Pet[]",
          "name": "",
          "type": "tuple[]"
        }
      ],
      "stateMutability": "view",
      "type": "function"
    },
    {
      "inputs": [],
      "name": "getPurchaseStatistics",
      "outputs": [
        {
          "internalType": "uint256",
          "name": "purchases",
          "type": "uint256"
        },
        {
          "internalType": "uint256",
          "name": "totalAmountPaid",
          "type": "uint256"
        }
      ],
      "stateMutability": "view",
      "type": "function"
    },
    {
      "inputs": [
        {
          "internalType": "uint256",
          "name": "microchipId",
          "type": "uint256"
        }
      ],
      "name": "markAsFound",
      "outputs": [],
      "stateMutability": "nonpayable",
      "type": "function"
    },
    {
      "inputs": [],
      "name": "owner",
      "outputs": [
        {
          "internalType": "address payable",
          "name": "",
          "type": "address"
        }
      ],
      "stateMutability": "view",
      "type": "function"
    },
    {
      "inputs": [
        {
          "internalType": "uint256",
          "name": "",
          "type": "uint256"
        }
      ],
      "name": "pets",
      "outputs": [
        {
          "internalType": "address",
          "name": "origin",
          "type": "address"
        },
        {
          "internalType": "address",
          "name": "owner",
          "type": "address"
        },
        {
          "internalType": "uint256",
          "name": "microchipId",
          "type": "uint256"
        },
        {
          "internalType": "string",
          "name": "name",
          "type": "string"
        },
        {
          "internalType": "string",
          "name": "breed",
          "type": "string"
        },
        {
          "internalType": "string",
          "name": "color",
          "type": "string"
        },
        {
          "internalType": "string",
          "name": "lastSeenLocation",
          "type": "string"
        },
        {
          "internalType": "uint256",
          "name": "age",
          "type": "uint256"
        },
        {
          "internalType": "bool",
          "name": "isFound",
          "type": "bool"
        }
      ],
      "stateMutability": "view",
      "type": "function"
    },
    {
      "inputs": [],
      "name": "totalPaid",
      "outputs": [
        {
          "internalType": "uint256",
          "name": "",
          "type": "uint256"
        }
      ],
      "stateMutability": "view",
      "type": "function"
    },
    {
      "inputs": [],
      "name": "totalPurchases",
      "outputs": [
        {
          "internalType": "uint256",
          "name": "",
          "type": "uint256"
        }
      ],
      "stateMutability": "view",
      "type": "function"
    }
  ],
  "bytecode": "0x608060405234801561001057600080fd5b50336000806101000a81548173ffffffffffffffffffffffffffffffffffffffff021916908373ffffffffffffffffffffffffffffffffffffffff160217905550612366806100606000396000f3fe6080604052600436106100915760003560e01c8063c11134a311610059578063c11134a31461016c578063c81b43b114610195578063cfb869bf146101da578063d21d1f201461021f578063e7b0f6661461023b57610091565b80635962a941146100965780635b236d97146100c15780638070c8fb146100ec5780638da5cb5b14610118578063b3035b6414610143575b600080fd5b3480156100a257600080fd5b506100ab610266565b6040516100b8919061151f565b60405180910390f35b3480156100cd57600080fd5b506100d661026c565b6040516100e391906117d1565b60405180910390f35b3480156100f857600080fd5b506101016105ef565b60405161010f9291906117f3565b60405180910390f35b34801561012457600080fd5b5061012d610600565b60405161013a919061183d565b60405180910390f35b34801561014f57600080fd5b5061016a6004803603810190610165919061188e565b610624565b005b34801561017857600080fd5b50610193600480360381019061018e9190611920565b610890565b005b3480156101a157600080fd5b506101bc60048036038101906101b7919061188e565b610d95565b6040516101d199989796959493929190611a98565b60405180910390f35b3480156101e657600080fd5b5061020160048036038101906101fc919061188e565b611060565b60405161021699989796959493929190611a98565b60405180910390f35b6102396004803603810190610234919061188e565b61131b565b005b34801561024757600080fd5b50610250611500565b60405161025d919061151f565b60405180910390f35b60025481565b60606005805480602002602001604051908101604052809291908181526020016000905b828210156105e65783829060005260206000209060090201604051806101200160405290816000820160009054906101000a900473ffffffffffffffffffffffffffffffffffffffff1673ffffffffffffffffffffffffffffffffffffffff1673ffffffffffffffffffffffffffffffffffffffff1681526020016001820160009054906101000a900473ffffffffffffffffffffffffffffffffffffffff1673ffffffffffffffffffffffffffffffffffffffff1673ffffffffffffffffffffffffffffffffffffffff1681526020016002820154815260200160038201805461037a90611b70565b80601f01602080910402602001604051908101604052809291908181526020018280546103a690611b70565b80156103f35780601f106103c8576101008083540402835291602001916103f3565b820191906000526020600020905b8154815290600101906020018083116103d657829003601f168201915b5050505050815260200160048201805461040c90611b70565b80601f016020809104026020016040519081016040528092919081815260200182805461043890611b70565b80156104855780601f1061045a57610100808354040283529160200191610485565b820191906000526020600020905b81548152906001019060200180831161046857829003601f168201915b5050505050815260200160058201805461049e90611b70565b80601f01602080910402602001604051908101604052809291908181526020018280546104ca90611b70565b80156105175780601f106104ec57610100808354040283529160200191610517565b820191906000526020600020905b8154815290600101906020018083116104fa57829003601f168201915b5050505050815260200160068201805461053090611b70565b80601f016020809104026020016040519081016040528092919081815260200182805461055c90611b70565b80156105a95780601f1061057e576101008083540402835291602001916105a9565b820191906000526020600020905b81548152906001019060200180831161058c57829003601f168201915b50505050508152602001600782015481526020016008820160009054906101000a900460ff16151515158152505081526020019060010190610290565b50505050905090565b600080600254600354915091509091565b60008054906101000a900473ffffffffffffffffffffffffffffffffffffffff1681565b600073ffffffffffffffffffffffffffffffffffffffff166004600083815260200190815260200160002060010160009054906101000a900473ffffffffffffffffffffffffffffffffffffffff1673ffffffffffffffffffffffffffffffffffffffff16036106c9576040517f08c379a00000000000000000000000000000000000000000000000000000000081526004016106c090611c13565b60405180910390fd5b3373ffffffffffffffffffffffffffffffffffffffff166004600083815260200190815260200160002060010160009054906101000a900473ffffffffffffffffffffffffffffffffffffffff1673ffffffffffffffffffffffffffffffffffffffff161461076d576040517f08c379a000000000000000000000000000000000000000000000000000000000815260040161076490611ca5565b60405180910390fd5b6004600082815260200190815260200160002060080160009054906101000a900460ff16156107d1576040517f08c379a00000000000000000000000000000000000000000000000000000000081526004016107c890611d11565b60405180910390fd5b60016004600083815260200190815260200160002060080160006101000a81548160ff02191690831515021790555060005b60058054905081101561088c57816005828154811061082557610824611d31565b5b9060005260206000209060090201600201540361087f5760016005828154811061085257610851611d31565b5b906000526020600020906009020160080160006101000a81548160ff02191690831515021790555061088c565b8080600101915050610803565b5050565b600073ffffffffffffffffffffffffffffffffffffffff16600460008c815260200190815260200160002060010160009054906101000a900473ffffffffffffffffffffffffffffffffffffffff1673ffffffffffffffffffffffffffffffffffffffff1614610935576040517f08c379a000000000000000000000000000000000000000000000000000000000815260040161092c90611dac565b60405180910390fd5b60006040518061012001604052803273ffffffffffffffffffffffffffffffffffffffff1681526020013373ffffffffffffffffffffffffffffffffffffffff1681526020018c81526020018b8b8080601f016020809104026020016040519081016040528093929190818152602001838380828437600081840152601f19601f82011690508083019250505050505050815260200189898080601f016020809104026020016040519081016040528093929190818152602001838380828437600081840152601f19601f82011690508083019250505050505050815260200187878080601f016020809104026020016040519081016040528093929190818152602001838380828437600081840152601f19601f82011690508083019250505050505050815260200185858080601f016020809104026020016040519081016040528093929190818152602001838380828437600081840152601f19601f82011690508083019250505050505050815260200183815260200160001515815250905080600460008d815260200190815260200160002060008201518160000160006101000a81548173ffffffffffffffffffffffffffffffffffffffff021916908373ffffffffffffffffffffffffffffffffffffffff16021790555060208201518160010160006101000a81548173ffffffffffffffffffffffffffffffffffffffff021916908373ffffffffffffffffffffffffffffffffffffffff160217905550604082015181600201556060820151816003019081610b799190611fa7565b506080820151816004019081610b8f9190611fa7565b5060a0820151816005019081610ba59190611fa7565b5060c0820151816006019081610bbb9190611fa7565b5060e082015181600701556101008201518160080160006101000a81548160ff021916908315150217905550905050600581908060018154018082558091505060019003906000526020600020906009020160009091909190915060008201518160000160006101000a81548173ffffffffffffffffffffffffffffffffffffffff021916908373ffffffffffffffffffffffffffffffffffffffff16021790555060208201518160010160006101000a81548173ffffffffffffffffffffffffffffffffffffffff021916908373ffffffffffffffffffffffffffffffffffffffff160217905550604082015181600201556060820151816003019081610cc39190611fa7565b506080820151816004019081610cd99190611fa7565b5060a0820151816005019081610cef9190611fa7565b5060c0820151816006019081610d059190611fa7565b5060e082015181600701556101008201518160080160006101000a81548160ff021916908315150217905550505060016000815480929190610d46906120a8565b91905055507f960f69e850cb0cc347044f0390e8aae3b02056ef0f98dbaf5cd1b8c9add44fe98b338c8c604051610d80949392919061212c565b60405180910390a15050505050505050505050565b60058181548110610da557600080fd5b90600052602060002090600902016000915090508060000160009054906101000a900473ffffffffffffffffffffffffffffffffffffffff16908060010160009054906101000a900473ffffffffffffffffffffffffffffffffffffffff1690806002015490806003018054610e1a90611b70565b80601f0160208091040260200160405190810160405280929190818152602001828054610e4690611b70565b8015610e935780601f10610e6857610100808354040283529160200191610e93565b820191906000526020600020905b815481529060010190602001808311610e7657829003601f168201915b505050505090806004018054610ea890611b70565b80601f0160208091040260200160405190810160405280929190818152602001828054610ed490611b70565b8015610f215780601f10610ef657610100808354040283529160200191610f21565b820191906000526020600020905b815481529060010190602001808311610f0457829003601f168201915b505050505090806005018054610f3690611b70565b80601f0160208091040260200160405190810160405280929190818152602001828054610f6290611b70565b8015610faf5780601f10610f8457610100808354040283529160200191610faf565b820191906000526020600020905b815481529060010190602001808311610f9257829003601f168201915b505050505090806006018054610fc490611b70565b80601f0160208091040260200160405190810160405280929190818152602001828054610ff090611b70565b801561103d5780601f106110125761010080835404028352916020019161103d565b820191906000526020600020905b81548152906001019060200180831161102057829003601f168201915b5050505050908060070154908060080160009054906101000a900460ff16905089565b60046020528060005260406000206000915090508060000160009054906101000a900473ffffffffffffffffffffffffffffffffffffffff16908060010160009054906101000a900473ffffffffffffffffffffffffffffffffffffffff16908060020154908060030180546110d590611b70565b80601f016020809104026020016040519081016040528092919081815260200182805461110190611b70565b801561114e5780601f106111235761010080835404028352916020019161114e565b820191906000526020600020905b81548152906001019060200180831161113157829003601f168201915b50505050509080600401805461116390611b70565b80601f016020809104026020016040519081016040528092919081815260200182805461118f90611b70565b80156111dc5780601f106111b1576101008083540402835291602001916111dc565b820191906000526020600020905b8154815290600101906020018083116111bf57829003601f168201915b5050505050908060050180546111f190611b70565b80601f016020809104026020016040519081016040528092919081815260200182805461121d90611b70565b801561126a5780601f1061123f5761010080835404028352916020019161126a565b820191906000526020600020905b81548152906001019060200180831161124d57829003601f168201915b50505050509080600601805461127f90611b70565b80601f01602080910402602001604051908101604052809291908181526020018280546112ab90611b70565b80156112f85780601f106112cd576101008083540402835291602001916112f8565b820191906000526020600020905b8154815290600101906020018083116112db57829003601f168201915b5050505050908060070154908060080160009054906101000a900460ff16905089565b60008054906101000a900473ffffffffffffffffffffffffffffffffffffffff1673ffffffffffffffffffffffffffffffffffffffff163373ffffffffffffffffffffffffffffffffffffffff16036113a9576040517f08c379a00000000000000000000000000000000000000000000000000000000081526004016113a0906121de565b60405180910390fd5b600034116113ec576040517f08c379a00000000000000000000000000000000000000000000000000000000081526004016113e39061224a565b60405180910390fd5b80341461142e576040517f08c379a0000000000000000000000000000000000000000000000000000000008152600401611425906122dc565b60405180910390fd5b60026000815480929190611441906120a8565b9190505550346003600082825461145891906122fc565b925050819055507fd1d288144fdcfabf64c226151567100203dcf6f7c3814caf64cea9116a76adce3460405161148e919061151f565b60405180910390a160008054906101000a900473ffffffffffffffffffffffffffffffffffffffff1673ffffffffffffffffffffffffffffffffffffffff166108fc349081150290604051600060405180830381858888f193505050501580156114fc573d6000803e3d6000fd5b5050565b60035481565b6000819050919050565b61151981611506565b82525050565b60006020820190506115346000830184611510565b92915050565b600081519050919050565b600082825260208201905092915050565b6000819050602082019050919050565b600073ffffffffffffffffffffffffffffffffffffffff82169050919050565b600061159182611566565b9050919050565b6115a181611586565b82525050565b6115b081611506565b82525050565b600081519050919050565b600082825260208201905092915050565b60005b838110156115f05780820151818401526020810190506115d5565b60008484015250505050565b6000601f19601f8301169050919050565b6000611618826115b6565b61162281856115c1565b93506116328185602086016115d2565b61163b816115fc565b840191505092915050565b60008115159050919050565b61165b81611646565b82525050565b60006101208301600083015161167a6000860182611598565b50602083015161168d6020860182611598565b5060408301516116a060408601826115a7565b50606083015184820360608601526116b8828261160d565b915050608083015184820360808601526116d2828261160d565b91505060a083015184820360a08601526116ec828261160d565b91505060c083015184820360c0860152611706828261160d565b91505060e083015161171b60e08601826115a7565b50610100830151611730610100860182611652565b508091505092915050565b60006117478383611661565b905092915050565b6000602082019050919050565b60006117678261153a565b6117718185611545565b93508360208202850161178385611556565b8060005b858110156117bf57848403895281516117a0858261173b565b94506117ab8361174f565b925060208a01995050600181019050611787565b50829750879550505050505092915050565b600060208201905081810360008301526117eb818461175c565b905092915050565b60006040820190506118086000830185611510565b6118156020830184611510565b9392505050565b600061182782611566565b9050919050565b6118378161181c565b82525050565b6000602082019050611852600083018461182e565b92915050565b600080fd5b600080fd5b61186b81611506565b811461187657600080fd5b50565b60008135905061188881611862565b92915050565b6000602082840312156118a4576118a3611858565b5b60006118b284828501611879565b91505092915050565b600080fd5b600080fd5b600080fd5b60008083601f8401126118e0576118df6118bb565b5b8235905067ffffffffffffffff8111156118fd576118fc6118c0565b5b602083019150836001820283011115611919576119186118c5565b5b9250929050565b60008060008060008060008060008060c08b8d03121561194357611942611858565b5b60006119518d828e01611879565b9a505060208b013567ffffffffffffffff8111156119725761197161185d565b5b61197e8d828e016118ca565b995099505060408b013567ffffffffffffffff8111156119a1576119a061185d565b5b6119ad8d828e016118ca565b975097505060608b013567ffffffffffffffff8111156119d0576119cf61185d565b5b6119dc8d828e016118ca565b955095505060808b013567ffffffffffffffff8111156119ff576119fe61185d565b5b611a0b8d828e016118ca565b935093505060a0611a1e8d828e01611879565b9150509295989b9194979a5092959850565b611a3981611586565b82525050565b600082825260208201905092915050565b6000611a5b826115b6565b611a658185611a3f565b9350611a758185602086016115d2565b611a7e816115fc565b840191505092915050565b611a9281611646565b82525050565b600061012082019050611aae600083018c611a30565b611abb602083018b611a30565b611ac8604083018a611510565b8181036060830152611ada8189611a50565b90508181036080830152611aee8188611a50565b905081810360a0830152611b028187611a50565b905081810360c0830152611b168186611a50565b9050611b2560e0830185611510565b611b33610100830184611a89565b9a9950505050505050505050565b7f4e487b7100000000000000000000000000000000000000000000000000000000600052602260045260246000fd5b60006002820490506001821680611b8857607f821691505b602082108103611b9b57611b9a611b41565b5b50919050565b7f50657420776974682074686520676976656e206d6963726f636869702049442060008201527f646f6573206e6f74206578697374000000000000000000000000000000000000602082015250565b6000611bfd602e83611a3f565b9150611c0882611ba1565b604082019050919050565b60006020820190508181036000830152611c2c81611bf0565b9050919050565b7f596f7520617265206e6f7420746865206f776e6572206f66207468697320706560008201527f7400000000000000000000000000000000000000000000000000000000000000602082015250565b6000611c8f602183611a3f565b9150611c9a82611c33565b604082019050919050565b60006020820190508181036000830152611cbe81611c82565b9050919050565b7f50657420697320616c7265616479206d61726b656420617320666f756e640000600082015250565b6000611cfb601e83611a3f565b9150611d0682611cc5565b602082019050919050565b60006020820190508181036000830152611d2a81611cee565b9050919050565b7f4e487b7100000000000000000000000000000000000000000000000000000000600052603260045260246000fd5b7f4d6963726f6368697020494420616c7265616479207265676973746572656400600082015250565b6000611d96601f83611a3f565b9150611da182611d60565b602082019050919050565b60006020820190508181036000830152611dc581611d89565b9050919050565b7f4e487b7100000000000000000000000000000000000000000000000000000000600052604160045260246000fd5b60008190508160005260206000209050919050565b60006020601f8301049050919050565b600082821b905092915050565b600060088302611e5d7fffffffffffffffffffffffffffffffffffffffffffffffffffffffffffffffff82611e20565b611e678683611e20565b95508019841693508086168417925050509392505050565b6000819050919050565b6000611ea4611e9f611e9a84611506565b611e7f565b611506565b9050919050565b6000819050919050565b611ebe83611e89565b611ed2611eca82611eab565b848454611e2d565b825550505050565b600090565b611ee7611eda565b611ef2818484611eb5565b505050565b5b81811015611f1657611f0b600082611edf565b600181019050611ef8565b5050565b601f821115611f5b57611f2c81611dfb565b611f3584611e10565b81016020851015611f44578190505b611f58611f5085611e10565b830182611ef7565b50505b505050565b600082821c905092915050565b6000611f7e60001984600802611f60565b1980831691505092915050565b6000611f978383611f6d565b9150826002028217905092915050565b611fb0826115b6565b67ffffffffffffffff811115611fc957611fc8611dcc565b5b611fd38254611b70565b611fde828285611f1a565b600060209050601f8311600181146120115760008415611fff578287015190505b6120098582611f8b565b865550612071565b601f19841661201f86611dfb565b60005b8281101561204757848901518255600182019150602085019450602081019050612022565b868310156120645784890151612060601f891682611f6d565b8355505b6001600288020188555050505b505050505050565b7f4e487b7100000000000000000000000000000000000000000000000000000000600052601160045260246000fd5b60006120b382611506565b91507fffffffffffffffffffffffffffffffffffffffffffffffffffffffffffffffff82036120e5576120e4612079565b5b600182019050919050565b82818337600083830152505050565b600061210b8385611a3f565b93506121188385846120f0565b612121836115fc565b840190509392505050565b60006060820190506121416000830187611510565b61214e6020830186611a30565b81810360408301526121618184866120ff565b905095945050505050565b7f596f752061726520746865206f776e6572206f662074686520636f6e7472616360008201527f7400000000000000000000000000000000000000000000000000000000000000602082015250565b60006121c8602183611a3f565b91506121d38261216c565b604082019050919050565b600060208201905081810360008301526121f7816121bb565b9050919050565b7f596f75206e65656420746f2073656e6420736f6d652065746865720000000000600082015250565b6000612234601b83611a3f565b915061223f826121fe565b602082019050919050565b6000602082019050818103600083015261226381612227565b9050919050565b7f53656e7420657468657220646f6573206e6f74206d617463682074686520737060008201527f6563696669656420616d6f756e74000000000000000000000000000000000000602082015250565b60006122c6602e83611a3f565b91506122d18261226a565b604082019050919050565b600060208201905081810360008301526122f5816122b9565b9050919050565b600061230782611506565b915061231283611506565b925082820190508082111561232a57612329612079565b5b9291505056fea2646970667358221220da8af55ed7b4267a2df8166bd3e431bea2d709daaa885cc4c715aec7b66aa79964736f6c63430008170033",
  "linkReferences": {},
  "deployedLinkReferences": {}
}