{
  "_format": "hh-sol-artifact-1",
  "contractName": "PetRegistry",
  "sourceName": "contracts/PetRegistry.sol",
  "abi": [
    {
      "anonymous": false,
      "inputs": [
        {
          "indexed": false,
          "internalType": "uint256",
          "name": "microchipId",
          "type": "uint256"
        },
        {
          "indexed": false,
          "internalType": "address",
          "name": "owner",
          "type": "address"
        },
        {
          "indexed": false,
          "internalType": "string",
          "name": "name",
          "type": "string"
        }
      ],
      "name": "PetAdded",
      "type": "event"
    },
    {
      "inputs": [
        {
          "internalType": "uint256",
          "name": "microchipId",
          "type": "uint256"
        },
        {
          "internalType": "string",
          "name": "name",
          "type": "string"
        },
        {
          "internalType": "string",
          "name": "breed",
          "type": "string"
        },
        {
          "internalType": "string",
          "name": "color",
          "type": "string"
        },
        {
          "internalType": "uint256",
          "name": "age",
          "type": "uint256"
        }
      ],
      "name": "addPet",
      "outputs": [],
      "stateMutability": "nonpayable",
      "type": "function"
    },
    {
      "inputs": [
        {
          "internalType": "uint256",
          "name": "",
          "type": "uint256"
        }
      ],
      "name": "allPets",
      "outputs": [
        {
          "internalType": "address",
          "name": "owner",
          "type": "address"
        },
        {
          "internalType": "uint256",
          "name": "microchipId",
          "type": "uint256"
        },
        {
          "internalType": "string",
          "name": "name",
          "type": "string"
        },
        {
          "internalType": "string",
          "name": "breed",
          "type": "string"
        },
        {
          "internalType": "string",
          "name": "color",
          "type": "string"
        },
        {
          "internalType": "uint256",
          "name": "age",
          "type": "uint256"
        },
        {
          "internalType": "bool",
          "name": "isFound",
          "type": "bool"
        }
      ],
      "stateMutability": "view",
      "type": "function"
    },
    {
      "inputs": [],
      "name": "getAllPets",
      "outputs": [
        {
          "components": [
            {
              "internalType": "address",
              "name": "owner",
              "type": "address"
            },
            {
              "internalType": "uint256",
              "name": "microchipId",
              "type": "uint256"
            },
            {
              "internalType": "string",
              "name": "name",
              "type": "string"
            },
            {
              "internalType": "string",
              "name": "breed",
              "type": "string"
            },
            {
              "internalType": "string",
              "name": "color",
              "type": "string"
            },
            {
              "internalType": "uint256",
              "name": "age",
              "type": "uint256"
            },
            {
              "internalType": "bool",
              "name": "isFound",
              "type": "bool"
            }
          ],
          "internalType": "struct PetRegistry.Pet[]",
          "name": "",
          "type": "tuple[]"
        }
      ],
      "stateMutability": "view",
      "type": "function"
    },
    {
      "inputs": [
        {
          "internalType": "uint256",
          "name": "microchipId",
          "type": "uint256"
        }
      ],
      "name": "markAsFound",
      "outputs": [],
      "stateMutability": "nonpayable",
      "type": "function"
    },
    {
      "inputs": [
        {
          "internalType": "uint256",
          "name": "",
          "type": "uint256"
        }
      ],
      "name": "pets",
      "outputs": [
        {
          "internalType": "address",
          "name": "owner",
          "type": "address"
        },
        {
          "internalType": "uint256",
          "name": "microchipId",
          "type": "uint256"
        },
        {
          "internalType": "string",
          "name": "name",
          "type": "string"
        },
        {
          "internalType": "string",
          "name": "breed",
          "type": "string"
        },
        {
          "internalType": "string",
          "name": "color",
          "type": "string"
        },
        {
          "internalType": "uint256",
          "name": "age",
          "type": "uint256"
        },
        {
          "internalType": "bool",
          "name": "isFound",
          "type": "bool"
        }
      ],
      "stateMutability": "view",
      "type": "function"
    }
  ],
  "bytecode": "0x608060405234801561001057600080fd5b506118f7806100206000396000f3fe608060405234801561001057600080fd5b50600436106100575760003560e01c80635b236d971461005c578063b3035b641461007a578063c81b43b114610096578063ca6660ce146100cc578063cfb869bf146100e8575b600080fd5b61006461011e565b6040516100719190611004565b60405180910390f35b610094600480360381019061008f919061105c565b6103b8565b005b6100b060048036038101906100ab919061105c565b610596565b6040516100c39796959493929190611100565b60405180910390f35b6100e660048036038101906100e191906111e9565b6107ad565b005b61010260048036038101906100fd919061105c565b610b8c565b6040516101159796959493929190611100565b60405180910390f35b60606002805480602002602001604051908101604052809291908181526020016000905b828210156103af57838290600052602060002090600702016040518060e00160405290816000820160009054906101000a900473ffffffffffffffffffffffffffffffffffffffff1673ffffffffffffffffffffffffffffffffffffffff1673ffffffffffffffffffffffffffffffffffffffff168152602001600182015481526020016002820180546101d5906112f4565b80601f0160208091040260200160405190810160405280929190818152602001828054610201906112f4565b801561024e5780601f106102235761010080835404028352916020019161024e565b820191906000526020600020905b81548152906001019060200180831161023157829003601f168201915b50505050508152602001600382018054610267906112f4565b80601f0160208091040260200160405190810160405280929190818152602001828054610293906112f4565b80156102e05780601f106102b5576101008083540402835291602001916102e0565b820191906000526020600020905b8154815290600101906020018083116102c357829003601f168201915b505050505081526020016004820180546102f9906112f4565b80601f0160208091040260200160405190810160405280929190818152602001828054610325906112f4565b80156103725780601f1061034757610100808354040283529160200191610372565b820191906000526020600020905b81548152906001019060200180831161035557829003601f168201915b50505050508152602001600582015481526020016006820160009054906101000a900460ff16151515158152505081526020019060010190610142565b50505050905090565b600073ffffffffffffffffffffffffffffffffffffffff166001600083815260200190815260200160002060000160009054906101000a900473ffffffffffffffffffffffffffffffffffffffff1673ffffffffffffffffffffffffffffffffffffffff160361045d576040517f08c379a000000000000000000000000000000000000000000000000000000000815260040161045490611397565b60405180910390fd5b3373ffffffffffffffffffffffffffffffffffffffff166001600083815260200190815260200160002060000160009054906101000a900473ffffffffffffffffffffffffffffffffffffffff1673ffffffffffffffffffffffffffffffffffffffff1614610501576040517f08c379a00000000000000000000000000000000000000000000000000000000081526004016104f890611429565b60405180910390fd5b6001600082815260200190815260200160002060060160009054906101000a900460ff1615610565576040517f08c379a000000000000000000000000000000000000000000000000000000000815260040161055c90611495565b60405180910390fd5b600180600083815260200190815260200160002060060160006101000a81548160ff02191690831515021790555050565b600281815481106105a657600080fd5b90600052602060002090600702016000915090508060000160009054906101000a900473ffffffffffffffffffffffffffffffffffffffff16908060010154908060020180546105f5906112f4565b80601f0160208091040260200160405190810160405280929190818152602001828054610621906112f4565b801561066e5780601f106106435761010080835404028352916020019161066e565b820191906000526020600020905b81548152906001019060200180831161065157829003601f168201915b505050505090806003018054610683906112f4565b80601f01602080910402602001604051908101604052809291908181526020018280546106af906112f4565b80156106fc5780601f106106d1576101008083540402835291602001916106fc565b820191906000526020600020905b8154815290600101906020018083116106df57829003601f168201915b505050505090806004018054610711906112f4565b80601f016020809104026020016040519081016040528092919081815260200182805461073d906112f4565b801561078a5780601f1061075f5761010080835404028352916020019161078a565b820191906000526020600020905b81548152906001019060200180831161076d57829003601f168201915b5050505050908060050154908060060160009054906101000a900460ff16905087565b600073ffffffffffffffffffffffffffffffffffffffff16600160008a815260200190815260200160002060000160009054906101000a900473ffffffffffffffffffffffffffffffffffffffff1673ffffffffffffffffffffffffffffffffffffffff1614610852576040517f08c379a000000000000000000000000000000000000000000000000000000000815260040161084990611501565b60405180910390fd5b60006040518060e001604052803373ffffffffffffffffffffffffffffffffffffffff1681526020018a815260200189898080601f016020809104026020016040519081016040528093929190818152602001838380828437600081840152601f19601f82011690508083019250505050505050815260200187878080601f016020809104026020016040519081016040528093929190818152602001838380828437600081840152601f19601f82011690508083019250505050505050815260200185858080601f016020809104026020016040519081016040528093929190818152602001838380828437600081840152601f19601f82011690508083019250505050505050815260200183815260200160001515815250905080600160008b815260200190815260200160002060008201518160000160006101000a81548173ffffffffffffffffffffffffffffffffffffffff021916908373ffffffffffffffffffffffffffffffffffffffff1602179055506020820151816001015560408201518160020190816109e891906116fc565b5060608201518160030190816109fe91906116fc565b506080820151816004019081610a1491906116fc565b5060a0820151816005015560c08201518160060160006101000a81548160ff021916908315150217905550905050600281908060018154018082558091505060019003906000526020600020906007020160009091909190915060008201518160000160006101000a81548173ffffffffffffffffffffffffffffffffffffffff021916908373ffffffffffffffffffffffffffffffffffffffff160217905550602082015181600101556040820151816002019081610ad491906116fc565b506060820151816003019081610aea91906116fc565b506080820151816004019081610b0091906116fc565b5060a0820151816005015560c08201518160060160006101000a81548160ff0219169083151502179055505050600080815480929190610b3f906117fd565b91905055507f960f69e850cb0cc347044f0390e8aae3b02056ef0f98dbaf5cd1b8c9add44fe989338a8a604051610b799493929190611881565b60405180910390a1505050505050505050565b60016020528060005260406000206000915090508060000160009054906101000a900473ffffffffffffffffffffffffffffffffffffffff1690806001015490806002018054610bdb906112f4565b80601f0160208091040260200160405190810160405280929190818152602001828054610c07906112f4565b8015610c545780601f10610c2957610100808354040283529160200191610c54565b820191906000526020600020905b815481529060010190602001808311610c3757829003601f168201915b505050505090806003018054610c69906112f4565b80601f0160208091040260200160405190810160405280929190818152602001828054610c95906112f4565b8015610ce25780601f10610cb757610100808354040283529160200191610ce2565b820191906000526020600020905b815481529060010190602001808311610cc557829003601f168201915b505050505090806004018054610cf7906112f4565b80601f0160208091040260200160405190810160405280929190818152602001828054610d23906112f4565b8015610d705780601f10610d4557610100808354040283529160200191610d70565b820191906000526020600020905b815481529060010190602001808311610d5357829003601f168201915b5050505050908060050154908060060160009054906101000a900460ff16905087565b600081519050919050565b600082825260208201905092915050565b6000819050602082019050919050565b600073ffffffffffffffffffffffffffffffffffffffff82169050919050565b6000610dea82610dbf565b9050919050565b610dfa81610ddf565b82525050565b6000819050919050565b610e1381610e00565b82525050565b600081519050919050565b600082825260208201905092915050565b60005b83811015610e53578082015181840152602081019050610e38565b60008484015250505050565b6000601f19601f8301169050919050565b6000610e7b82610e19565b610e858185610e24565b9350610e95818560208601610e35565b610e9e81610e5f565b840191505092915050565b60008115159050919050565b610ebe81610ea9565b82525050565b600060e083016000830151610edc6000860182610df1565b506020830151610eef6020860182610e0a565b5060408301518482036040860152610f078282610e70565b91505060608301518482036060860152610f218282610e70565b91505060808301518482036080860152610f3b8282610e70565b91505060a0830151610f5060a0860182610e0a565b5060c0830151610f6360c0860182610eb5565b508091505092915050565b6000610f7a8383610ec4565b905092915050565b6000602082019050919050565b6000610f9a82610d93565b610fa48185610d9e565b935083602082028501610fb685610daf565b8060005b85811015610ff25784840389528151610fd38582610f6e565b9450610fde83610f82565b925060208a01995050600181019050610fba565b50829750879550505050505092915050565b6000602082019050818103600083015261101e8184610f8f565b905092915050565b600080fd5b600080fd5b61103981610e00565b811461104457600080fd5b50565b60008135905061105681611030565b92915050565b60006020828403121561107257611071611026565b5b600061108084828501611047565b91505092915050565b61109281610ddf565b82525050565b6110a181610e00565b82525050565b600082825260208201905092915050565b60006110c382610e19565b6110cd81856110a7565b93506110dd818560208601610e35565b6110e681610e5f565b840191505092915050565b6110fa81610ea9565b82525050565b600060e082019050611115600083018a611089565b6111226020830189611098565b818103604083015261113481886110b8565b9050818103606083015261114881876110b8565b9050818103608083015261115c81866110b8565b905061116b60a0830185611098565b61117860c08301846110f1565b98975050505050505050565b600080fd5b600080fd5b600080fd5b60008083601f8401126111a9576111a8611184565b5b8235905067ffffffffffffffff8111156111c6576111c5611189565b5b6020830191508360018202830111156111e2576111e161118e565b5b9250929050565b60008060008060008060008060a0898b03121561120957611208611026565b5b60006112178b828c01611047565b985050602089013567ffffffffffffffff8111156112385761123761102b565b5b6112448b828c01611193565b9750975050604089013567ffffffffffffffff8111156112675761126661102b565b5b6112738b828c01611193565b9550955050606089013567ffffffffffffffff8111156112965761129561102b565b5b6112a28b828c01611193565b935093505060806112b58b828c01611047565b9150509295985092959890939650565b7f4e487b7100000000000000000000000000000000000000000000000000000000600052602260045260246000fd5b6000600282049050600182168061130c57607f821691505b60208210810361131f5761131e6112c5565b5b50919050565b7f50657420776974682074686520676976656e206d6963726f636869702049442060008201527f646f6573206e6f74206578697374000000000000000000000000000000000000602082015250565b6000611381602e836110a7565b915061138c82611325565b604082019050919050565b600060208201905081810360008301526113b081611374565b9050919050565b7f596f7520617265206e6f7420746865206f776e6572206f66207468697320706560008201527f7400000000000000000000000000000000000000000000000000000000000000602082015250565b60006114136021836110a7565b915061141e826113b7565b604082019050919050565b6000602082019050818103600083015261144281611406565b9050919050565b7f50657420697320616c7265616479206d61726b656420617320666f756e640000600082015250565b600061147f601e836110a7565b915061148a82611449565b602082019050919050565b600060208201905081810360008301526114ae81611472565b9050919050565b7f4d6963726f6368697020494420616c7265616479207265676973746572656400600082015250565b60006114eb601f836110a7565b91506114f6826114b5565b602082019050919050565b6000602082019050818103600083015261151a816114de565b9050919050565b7f4e487b7100000000000000000000000000000000000000000000000000000000600052604160045260246000fd5b60008190508160005260206000209050919050565b60006020601f8301049050919050565b600082821b905092915050565b6000600883026115b27fffffffffffffffffffffffffffffffffffffffffffffffffffffffffffffffff82611575565b6115bc8683611575565b95508019841693508086168417925050509392505050565b6000819050919050565b60006115f96115f46115ef84610e00565b6115d4565b610e00565b9050919050565b6000819050919050565b611613836115de565b61162761161f82611600565b848454611582565b825550505050565b600090565b61163c61162f565b61164781848461160a565b505050565b5b8181101561166b57611660600082611634565b60018101905061164d565b5050565b601f8211156116b05761168181611550565b61168a84611565565b81016020851015611699578190505b6116ad6116a585611565565b83018261164c565b50505b505050565b600082821c905092915050565b60006116d3600019846008026116b5565b1980831691505092915050565b60006116ec83836116c2565b9150826002028217905092915050565b61170582610e19565b67ffffffffffffffff81111561171e5761171d611521565b5b61172882546112f4565b61173382828561166f565b600060209050601f8311600181146117665760008415611754578287015190505b61175e85826116e0565b8655506117c6565b601f19841661177486611550565b60005b8281101561179c57848901518255600182019150602085019450602081019050611777565b868310156117b957848901516117b5601f8916826116c2565b8355505b6001600288020188555050505b505050505050565b7f4e487b7100000000000000000000000000000000000000000000000000000000600052601160045260246000fd5b600061180882610e00565b91507fffffffffffffffffffffffffffffffffffffffffffffffffffffffffffffffff820361183a576118396117ce565b5b600182019050919050565b82818337600083830152505050565b600061186083856110a7565b935061186d838584611845565b61187683610e5f565b840190509392505050565b60006060820190506118966000830187611098565b6118a36020830186611089565b81810360408301526118b6818486611854565b90509594505050505056fea264697066735822122044263f17d7a5d471effa9253782dc8d0549ba149e058f4b7dce99104592235d664736f6c63430008170033",
  "linkReferences": {},
  "deployedLinkReferences": {}
}